S01700004763634170706C69636174696F6E312E737265635B
S11300000C942A000C9447000C9447000C9447006D
S11300100C9447000C9447000C9447000C94470040
S11300200C9447000C9447000C9447000C94470030
S11300300C9447000C9447000C9447000C94470020
S11300400C9447000C9447000C9447000C94470010
S11300500C94470011241FBECFE5D8E0DEBFCDBF0E
S113006011E0A0E6B0E0E0E3F9E002C005900D92F3
S1130070AC32B107D9F721E0ACE2B1E001C01D9286
S1130080AD33B207E1F70E9450040C9496040C942B
S11300900000DE9A00C0DE980895CF93DF93D82F36
S11300A0662311F0DC9A01C0DC98DD988AB38F6076
S11300B08ABBCBB3C07F8D2F82958F708C2B8BBB6B
S11300C00E944900DF70DC2BDBBB0E944900CF603B
S11300D0CBBBDF91CF910895882311F0DC9A01C046
S11300E0DC98DD9A8AB3807F8ABBDE9A00C099B31C
S11300F0DE9800C0DE9A00C029B32F70892F829544
S1130100807FDE98822B089580E00E946C00882313
S1130110DCF388E090E00197F1F780E00E946C0046
S11301200895CF93C82F0E94840060E08C2F0E9412
S11301304D00CF910895611104C080580E94910030
S1130140089580540E949100089581E00E949100D6
S11301500895CF93C82F0E948400CA3049F4803494
S113016010F080E001C080E480580E94910004C037
S113017061E08C2F0E944D00CF910895CF93DF93BF
S1130180EC012196FC018081882329F00E94A900BA
S113019089918111FBCFDF91CF9108951F93CF9364
S11301A0DF93182F8AB38F678ABB80E09AEF019799
S11301B0F1F7D99AD89A0E94490080E09EE4019709
S11301C0F1F70E944900C0E0D1E0CE010197F1F7B8
S11301D00E944900CE010197F1F7D8980E94490086
S11301E02197F1F788E20E94910088E00E94910033
S11301F00E94A50086E00E949100812F0E94910038
S1130200DF91CF911F9108950E94A50060E080E0E6
S11302100E949B0081E990E00E94BE0061E080E0C2
S11302200E949B00109236011092350108950E949D
S1130230A50060E080E00E949B000895CF92DF92C9
S1130240EF92FF920F931F93CF93DF93833030F598
S11302506B0190E09C01220F331F220F331F820F8A
S1130260931F7C01FB0101900020E9F73197BF0146
S11302706C197D09D62F0E948904DD2379F086014B
S1130280C0E0EC18FD08F80161918F01C7018E0FE1
S11302909F1F0E948904CF5FDC13F5CFDF91CF91BC
S11302A01F910F91FF90EF90DF90CF900895BF9230
S11302B0CF92DF92EF92FF920F931F93CF93DF932E
S11302C0833040F56B0190E0EC01CC0FDD1FCC0FC7
S11302D0DD1FC80FD91FCE010E948104B82E8823C8
S11302E0A9F021968601EE24EA94E80EF12C8FEF12
S11302F0E81AF80AEC0CFD1CCE010E948104F801F6
S113030081938F012196EE15FF05B1F7F601EB0DF0
S1130310F11D1082DF91CF911F910F91FF90EF900B
S1130320DF90CF90BF9008950F931F93CF938C01CC
S11303308FE090E00E948104C82F8330A0F00E94D7
S1130340170181EA90E00E94BE002FE38DE093E064
S1130350215080409040E1F700C000000E94170146
S11303608FEF9FEF0BC0B8010E941E0161E06C0F7C
S11303708FE090E00E94890480E090E0CF911F918B
S11303800F910895833028F40E941E0180E090E0CC
S113039008958FEF9FEF0895CF93DF93409164000A
S11303A0C8E6D0E06CE770E08881841731F105C0BD
S11303B03D912191321781F002C080E090E02596B2
S11303C0C617D70789F710922E0110922D0190932A
S11303D031018093300118C001968430910541F7B2
S11303E081E090E090932E0180932D0184E090E0D1
S11303F0909331018093300107C0DE011196E5E648
S1130400F0E081E090E0D4CFDF91CF91089580EFC8
S113041082BB80B38F60809334018F3F31F080B30F
S11304208F60809334018F3FD1F780B38F608093C6
S113043034018F3FD1F32FE986E891E021508040C9
S11304409040E1F700C0000040913401842F8061A6
S113045080932C018F3F09F045C008C0322F342B04
S11304603F3F59F42FEF20932C0102C080E090E02D
S113047090933C0180933B0107C0220F0196843086
S1130480910561F730932C0181E080932F01109244
S113049031011092300180912F01809582BB00C000
S11304A000C0000080B38F60809334018F3F49F017
S11304B08091300190913101909333018093320106
S11304C0089580912F01880F80932F01809130012E
S11304D090913101019690933101809330010497FA
S11304E0D4F2089581E090E020E2B8CFEF92FF9239
S11304F00F931F93CF93DF930E940702C0E6D0E0CF
S11305000F2EF2E3EF2EF1E0FF2EF02DF7018081A4
S1130510880F880F0BE311E0F8019081890F88831D
S11305208AE20E94A900FFE926E881E0F150204018
S11305308040E1F700C000000E940702F7018081BB
S1130540880F880FF8019081890F89838AE20E94BD
S1130550A900FFE926E881E0F15020408040E1F75E
S113056000C000000E940702F7018081880F880FF5
S1130570F8019081890F8A838AE20E94A900FFE929
S113058026E881E0F15020408040E1F700C00000FF
S11305900E940702F7018081880F880FF80190817B
S11305A0890F8B838AE20E94A900FFE926E881E093
S11305B0F15020408040E1F700C000000E94170184
S11305C0DF91CF911F910F91FF90EF900895CF93FA
S11305D0DF93C9E3D1E00E94170180EB90E00E9411
S11305E0BE0061E080E00E949B0082EC90E00E94EB
S11305F0BE002FE986E891E0215080409040E1F769
S113060000C000000E9407028091320190913301E2
S1130610880F991F880F991F20913B0130913C014D
S1130620820F931F90933A0180933901FC01EF5795
S1130630FF4F8081813309F08BC00E94170189EC40
S113064090E00E94BE0061E080E00E949B0088ED83
S113065090E00E94BE002FE986E891E0215080409E
S11306609040E1F700C000000E940702809132012F
S113067090913301880F991F880F991F20913B0196
S113068030913C01820F931F90933A01809339017A
S1130690FC01EF57FF4F80818133F9F40E94170169
S11306A08AEE90E00E94BE002FE986E891E0215096
S11306B080409040E1F700C000000E9476022FE9DC
S11306C086E891E0215080409040E1F700C00000AE
S11306D080E690E00E9494017ECF823309F07BCFC4
S11306E00E9417018DEF90E00E94BE000E94070255
S11306F08091320190913301880F991F880F991FBF
S113070020913B0130913C01820F931F90933A0159
S1130710809339012FE986E891E021508040904090
S1130720E1F700C000008AEE90E00E94BE000E9443
S113073076022FE986E891E0215080409040E1F76D
S113074000C0000060E670E088810E94C20143CFCF
S1130750823309F040CFDF91CF9108950E940702C0
S11307608091320190913301880F991F880F991F4E
S113077020913B0130913C01820F931F90933A01E9
S113078080933901FC01EF57FF4F80810E94A9003B
S113079080913501909136019C012F5F3F4F30933A
S11307A0360120933501DC01AC59BF4FE09139018A
S11307B0F0913A01EF57FF4F40814C9324303105BB
S11307C0B1F50E94CC0180912D0190912E01892BCD
S11307D0A1F00E9404018AE091E00E94BE002FE78C
S11307E084E89EE1215080409040E1F700C0000081
S11307F00E94E7020E9404011AC00E9404018BE1D6
S113080091E00E94BE002FE784E89EE121508040E1
S11308109040E1F700C000000E940401809137017C
S1130820909138010196909338018093370180911B
S1130830390190913A010C9711F40E9417012FE9A4
S113084086E891E0215080409040E1F700C000002C
S1130850089581E090E0909331018093300121E08C
S113086025BB3FE382E49FE0315080409040E1F7B4
S113087000C0000015BA3FE382E49FE0315080409D
S11308809040E1F700C00000809130019091310167
S1130890019690933101809330010A970CF30895E7
S11308A08CE00E94CE008CE790E00E94940168E600
S11308B070E080E00E9457018DE690E00E94BE0047
S11308C02FE38DE093E0215080409040E1F700C099
S11308D000000E9404018FE081BB84BB10923801A8
S11308E0109237010E94AE03809137019091380134
S11308F00397C1F70E94290410923801109237011E
S1130900F1CFE199FECF9FBB8EBBE09A99278DB3BF
S11309100895262FE199FECF9FBB8EBB2DBB0FB64A
S1130920F894E29AE19A0FBE01960895F894FFCFE5
S113093020202020202020202020202000202020D3
S113094020002020202000202020200031323334B9
S1130950003738392F3435362A3132332D20303DA3
S11309602B656E7465722070617373776F72643A6D
S1130970006D656D6F72792069732066756C6C000B
S1130980312D6D616E6167652070617373776F726D
S11309906400322D6578697400312D6164642070BF
S11309A0617373776F726400322D6368616E67657B
S11309B02070617373776F726400656E7465722062
S11309C06E65772070617373776F726400776869FE
S11309D0636820696E6465783F0070617373776F34
S11309E0726420636F7272656374007061737377ED
S10F09F06F72642077726F6E6721000044
S9030000FC
